{
  "address": "0x8d407A1722633bDD1dcf221474be7a44C05d7c2F",
  "abi": [
    {
      "anonymous": false,
      "inputs": [
        {
          "indexed": false,
          "internalType": "address",
          "name": "sender",
          "type": "address"
        },
        {
          "indexed": false,
          "internalType": "uint256",
          "name": "dataExchangeId",
          "type": "uint256"
        },
        {
          "indexed": false,
          "internalType": "uint256",
          "name": "timestamp",
          "type": "uint256"
        },
        {
          "indexed": false,
          "internalType": "uint256",
          "name": "secret",
          "type": "uint256"
        }
      ],
      "name": "Registration",
      "type": "event"
    },
    {
      "inputs": [
        {
          "internalType": "address",
          "name": "",
          "type": "address"
        },
        {
          "internalType": "uint256",
          "name": "",
          "type": "uint256"
        }
      ],
      "name": "registry",
      "outputs": [
        {
          "internalType": "uint256",
          "name": "timestamp",
          "type": "uint256"
        },
        {
          "internalType": "uint256",
          "name": "secret",
          "type": "uint256"
        }
      ],
      "stateMutability": "view",
      "type": "function"
    },
    {
      "inputs": [
        {
          "internalType": "uint256",
          "name": "_dataExchangeId",
          "type": "uint256"
        },
        {
          "internalType": "uint256",
          "name": "_secret",
          "type": "uint256"
        }
      ],
      "name": "setRegistry",
      "outputs": [],
      "stateMutability": "nonpayable",
      "type": "function"
    }
  ],
  "transactionHash": "0x6a3828f8fe232819dc40ca66f93930b3bd1619db31a67ec34b44446b3e7c8289",
  "args": [],
  "solcInputHash": "c528a37588793ef74285d75e08d6b8eb",
  "bytecode": "0x608060405234801561001057600080fd5b506103a2806100206000396000f3fe608060405234801561001057600080fd5b50600436106100365760003560e01c8063032439371461003b578063d05cb54514610057575b600080fd5b6100556004803603810190610050919061023a565b610088565b005b610071600480360381019061006c91906101fe565b6101a3565b60405161007f9291906102d9565b60405180910390f35b60008060003373ffffffffffffffffffffffffffffffffffffffff1673ffffffffffffffffffffffffffffffffffffffff168152602001908152602001600020600084815260200190815260200160002060010154146100e757600080fd5b6040518060400160405280428152602001828152506000803373ffffffffffffffffffffffffffffffffffffffff1673ffffffffffffffffffffffffffffffffffffffff168152602001908152602001600020600084815260200190815260200160002060008201518160000155602082015181600101559050507faa58599838af2e5e0f3251cfbb4eac5d5d447ded49f6b0ac28d6b44098224e63338342846040516101979493929190610294565b60405180910390a15050565b6000602052816000526040600020602052806000526040600020600091509150508060000154908060010154905082565b6000813590506101e38161033e565b92915050565b6000813590506101f881610355565b92915050565b6000806040838503121561021157600080fd5b600061021f858286016101d4565b9250506020610230858286016101e9565b9150509250929050565b6000806040838503121561024d57600080fd5b600061025b858286016101e9565b925050602061026c858286016101e9565b9150509250929050565b61027f81610302565b82525050565b61028e81610334565b82525050565b60006080820190506102a96000830187610276565b6102b66020830186610285565b6102c36040830185610285565b6102d06060830184610285565b95945050505050565b60006040820190506102ee6000830185610285565b6102fb6020830184610285565b9392505050565b600061030d82610314565b9050919050565b600073ffffffffffffffffffffffffffffffffffffffff82169050919050565b6000819050919050565b61034781610302565b811461035257600080fd5b50565b61035e81610334565b811461036957600080fd5b5056fea26469706673582212204fd0fc653fb487221da9a14a4ca5d5499f9e9bc7b27ac8ab0f8d397fd6e3148564736f6c63430008040033",
  "devdoc": {
    "kind": "dev",
    "methods": {},
    "version": 1
  },
  "userdoc": {
    "kind": "user",
    "methods": {},
    "version": 1
  },
  "storageLayout": {
    "storage": [
      {
        "astId": 13,
        "contract": "contracts/NonRepudiation.sol:NonRepudiation",
        "label": "registry",
        "offset": 0,
        "slot": "0",
        "type": "t_mapping(t_address,t_mapping(t_uint256,t_struct(Proof)6_storage))"
      }
    ],
    "types": {
      "t_address": {
        "encoding": "inplace",
        "label": "address",
        "numberOfBytes": "20"
      },
      "t_mapping(t_address,t_mapping(t_uint256,t_struct(Proof)6_storage))": {
        "encoding": "mapping",
        "key": "t_address",
        "label": "mapping(address => mapping(uint256 => struct NonRepudiation.Proof))",
        "numberOfBytes": "32",
        "value": "t_mapping(t_uint256,t_struct(Proof)6_storage)"
      },
      "t_mapping(t_uint256,t_struct(Proof)6_storage)": {
        "encoding": "mapping",
        "key": "t_uint256",
        "label": "mapping(uint256 => struct NonRepudiation.Proof)",
        "numberOfBytes": "32",
        "value": "t_struct(Proof)6_storage"
      },
      "t_struct(Proof)6_storage": {
        "encoding": "inplace",
        "label": "struct NonRepudiation.Proof",
        "members": [
          {
            "astId": 3,
            "contract": "contracts/NonRepudiation.sol:NonRepudiation",
            "label": "timestamp",
            "offset": 0,
            "slot": "0",
            "type": "t_uint256"
          },
          {
            "astId": 5,
            "contract": "contracts/NonRepudiation.sol:NonRepudiation",
            "label": "secret",
            "offset": 0,
            "slot": "1",
            "type": "t_uint256"
          }
        ],
        "numberOfBytes": "64"
      },
      "t_uint256": {
        "encoding": "inplace",
        "label": "uint256",
        "numberOfBytes": "32"
      }
    }
  }
}